:100000000C9462000C948A000C948A000C948A0070
:100010000C948A000C948A000C948A000C948A0038
:100020000C948A000C948A000C948A000C948A0028
:100030000C948A000C948A000C948A000C948A0018
:100040000C94FC040C948A000C948A000C948A0092
:100050000C948A000C948A000C948A000C948A00F8
:100060000C9446050C948A00000000002400270030
:100070002A0000000000250028002B0000000000DE
:1000800023002600290004040404040404040202DA
:100090000202020203030303030301020408102007
:1000A0004080010204081020010204081020000012
:1000B0000008000201000003040700000000000027
:1000C0000000650611241FBECFEFD8E0DEBFCDBF14
:1000D00022E0A6E7B1E001C01D92A536B207E1F724
:1000E00011E0A0E0B1E0E4EBFBE102C005900D926D
:1000F000A637B107D9F710E0C2E6D0E004C02197D7
:10010000FE010E943F09C136D107C9F70E9485064A
:100110000C94D80D0C94000008950895AF92BF92EE
:10012000CF92DF92EF92FF920F931F93CF93DF93C3
:100130006C017B018B01040F151FEB015E01AE18F2
:10014000BF08C017D10759F06991D601ED91FC9114
:100150000190F081E02DC6010995892B79F7C50141
:10016000DF91CF911F910F91FF90EF90DF90CF9093
:10017000BF90AF900895833081F028F4813099F0DA
:100180008230A9F008958730A9F08830C9F0843012
:10019000B1F4809180008F7D03C0809180008F77C3
:1001A00080938000089584B58F7784BD089584B5C9
:1001B0008F7DFBCF8091B0008F778093B000089542
:1001C0008091B0008F7DF9CF1F93CF93DF93282FBD
:1001D00030E0F901E255FF4F8491F901E656FF4FF7
:1001E000D491F901EA57FF4FC491CC23A9F0162FFF
:1001F00081110E94BB00EC2FF0E0EE0FFF1FEE58C4
:10020000FF4FA591B4918FB7F894EC91111108C0EC
:10021000D095DE23DC938FBFDF91CF911F9108959E
:10022000DE2BF8CFCF93DF9390E0FC01E656FF4F33
:1002300024918A579F4FFC0184918823D1F090E04C
:10024000880F991FFC01E859FF4FA591B491FC015B
:10025000EE58FF4FC591D49161110EC09FB7F8942D
:100260008C91E22FE0958E238C932881E223E88302
:100270009FBFDF91CF9108958FB7F894EC91E22B57
:10028000EC938FBFF6CF8E50806480937C0080917A
:100290007A00806480937A0080917A0086FDFCCF9A
:1002A000809178009091790008953FB7F8948091FB
:1002B000240290912502A0912602B091270226B532
:1002C000A89B05C02F3F19F00196A11DB11D3FBF8E
:1002D000BA2FA92F982F8827BC01CD01620F711D5D
:1002E000811D911D43E0660F771F881F991F4A9556
:1002F000D1F708958F929F92AF92BF92CF92DF92E3
:10030000EF92FF924B015C010E9455016B017C0151
:100310000E9455016C197D098E099F09683E734042
:1003200081059105A8F321E0821A9108A108B1087E
:1003300088EEC80E83E0D81EE11CF11C81149104E4
:10034000A104B10429F7FF90EF90DF90CF90BF9008
:10035000AF909F908F900895089585ED8093BC0095
:100360008091BC0084FDFCCF10922E020895209154
:10037000B601260F3327331F21323105ECF42091CB
:100380002E02FC0190E080E0243069F082E00895C4
:10039000A091B6012191AC014A565E4FA40FB52F32
:1003A000B11D2C930196861798F38091B601680FC2
:1003B0006093B60180E0089581E008950895E0918A
:1003C000320280913102E81730F4F0E0EA58FE4F33
:1003D000808190E008958FEF9FEF08959091320211
:1003E000809131022FEF3FEF981748F4E92FF0E0AA
:1003F000EA58FE4F208130E09F5F90933202C9019E
:1004000008958091310290913202891B990B0895D1
:10041000CF92DF92EF92FF920F931F93CF93DF93D0
:100420007C01CB018A012091FD01222389F0EB019F
:100430006B01C40ED51ECC15DD0569F06991D7019D
:10044000ED91FC910190F081E02DC7010995F3CF6A
:10045000642F0E94B701C801DF91CF911F910F91C6
:10046000FF90EF90DF90CF900895CF93DF931F928E
:10047000CDB7DEB769832091FD012223F9F02091E9
:100480002F02203258F021E030E0FC013383228338
:1004900090E080E00F90DF91CF910895809130023D
:1004A000E82FF0E0E250FE4F998190838F5F8093B8
:1004B000300280932F0281E090E0ECCF61E0CE012A
:1004C00001960E94B701F7CFCF93FC01C48121E0D0
:1004D0002093FD01C0931E021092300210922F0251
:1004E0008385682B89E492E00E94350290912F0267
:1004F000913208F03FC080912E028111FCCF82E042
:1005000080932E0281E080932D028FEF8093FC0177
:100510001092FB019093FA01AEEFB1E0EAEDF1E049
:1005200080E098132FC01092D9018091D901CC0F8F
:10053000C82BC093D90180912C02813039F51092DB
:100540002C028091D9018093BB008091BC0083FD77
:10055000F8CF85EC8093BC0080912E028230E1F3CD
:100560008091FC018F3F31F08091FC01803211F0CD
:100570008091FC011092300210922F021092FD0126
:10058000CF9108952D9121938F5FCBCF85EEE2CF50
:1005900090E080E00895FC0101900020E9F7319798
:1005A000AF01481B590BBC0185E592E00C948E000D
:1005B0000F931F93CF93DF93EC018881998100976C
:1005C00059F02A813B812617370730F081E0DF910F
:1005D000CF911F910F9108958B016F5F7F4F0E9404
:1005E0006A0A009759F0998388831B830A832C81B8
:1005F0003D81232B59F7FC011082E8CF80E0E7CF43
:10060000CF93DF93EC0188819981009711F00E94CC
:10061000E109198218821D821C821B821A82DF91D5
:10062000CF910895EF92FF920F931F93CF93DF9393
:10063000EC017B01198218821B821A821D821C82A6
:10064000FB0101900020E9F731978F01061B170B82
:10065000B8010E94D802811109C0CE01DF91CF916B
:100660001F910F91FF90EF900C9400031D830C835A
:10067000B70188819981DF91CF911F910F91FF90F0
:10068000EF900C94300BCF92DF92EF92FF920F938A
:100690001F93CF93DF93CDB7DEB762970FB6F89471
:1006A000DEBF0FBECDBF8C01CB01F80111821082DD
:1006B00013821282158214824AE09E012F5F3F4FFF
:1006C0006901B9010E94AB08F60101900020E9F729
:1006D00031977F01EC18FD08B701C8010E94D802CC
:1006E000811112C0C8010E94000362960FB6F894EF
:1006F000DEBF0FBECDBFDF91CF911F910F91FF9055
:10070000EF90DF90CF900895F801F582E482B60172
:10071000808191810E94300BE8CFEF92FF920F937E
:100720001F93CF93DF93EC01FB01E080F180E11494
:10073000F10411F10481158101151105A9F08C81D5
:100740009D81080F191FB801CE010E94D80288238D
:1007500099F0288139818C819D81B701820F931F87
:100760000E94300B1D830C83CE01DF91CF911F912E
:100770000F91FF90EF900895CE010E940003F4CFF7
:10078000FC0180819181009711F00C94E10908959A
:100790000F931F93CF938C01C62F0E9464026C2F7E
:1007A0006460C8010E9464026C2F6B7FC8010E94C4
:1007B000640280E690E00197F1F7CF911F910F91CD
:1007C00008950F931F93CF93DF938C01D62FC42FDF
:1007D000607F642B0E94C80380E1D89FB001112480
:1007E0006C2BC801DF91CF911F910F910C94C8031E
:1007F000CF93DF93CDB7DEB728970FB6F894DEBF5F
:100800000FBECDBF98E0EAE0F1E0DE011196019065
:100810000D929A95E1F790915D02981708F48FEF89
:1008200090E0880F991F21E030E02C0F3D1F820FD0
:10083000931FFC016081606840E085E592E02896A6
:100840000FB6F894DEBF0FBECDBFDF91CF910C94F1
:10085000E10341E00E94E10381E090E00895CF933D
:10086000DF93C5E5D2E06E816B7F6E83686040E008
:10087000CE010E94E10368EC70E080E090E00E940D
:100880007A016E81862F84608E836C6040E0CE0199
:100890000E94E10368EC70E080E090E0DF91CF918E
:1008A0000C947A01EF92FF920F931F93CF93DF93F3
:1008B000CDB7DEB72C970FB6F894DEBF0FBECDBF15
:1008C0008C017B010E942F0410930301009302010D
:1008D00086E0E816F1040CF084C0F0920101E09289
:1008E000000180910001909101011816190634F061
:1008F00081E090E0909301018093000181E00E94EB
:10090000F803B801CE0107960E94430360E371E04B
:10091000CE0101960E941203BE01695F7F4FCE0196
:1009200001960E948D03FC01448155816081718193
:1009300085E592E00E948E00CE0101960E94C003E0
:10094000CE0107960E94C0036091000170910101E1
:10095000CE0107960E94430366E371E0CE01019643
:100960000E941203BE01695F7F4FCE0101960E9473
:100970008D038C01FC01E480F580F2E0EF0EF11CA8
:10098000B7010E94D802882399F1F80120813181B2
:10099000848195816DE371E0820F931F0E94300B7B
:1009A000F801F582E482F80144815581608171810A
:1009B00085E592E00E948E00CE0101960E94C00360
:1009C000CE0107960E94C0032C960FB6F894DEBFA6
:1009D0000FBECDBFDF91CF911F910F91FF90EF9090
:1009E000089585E090E0909301018093000179CF14
:1009F000C8010E940003D7CF1F920F920FB60F922B
:100A000011242F933F938F939F93AF93BF93809124
:100A1000200290912102A0912202B09123023091F4
:100A20001F0226E0230F2D3758F50296A11DB11D98
:100A300020931F028093200290932102A093220210
:100A4000B09323028091240290912502A091260266
:100A5000B09127020196A11DB11D809324029093AD
:100A60002502A0932602B0932702BF91AF919F91D8
:100A70008F913F912F910F900FBE0F901F9018955F
:100A800029E8230F0396A11DB11DD2CF1F920F920B
:100A90000FB60F9211242F933F934F935F936F9351
:100AA0007F938F939F93AF93BF93EF93FF93809127
:100AB000B900887F803609F44AC0F0F5883209F41D
:100AC000A7C018F5803109F49BC0B8F4882309F455
:100AD000F9C0883009F494C0FF91EF91BF91AF91B4
:100AE0009F918F917F916F915F914F913F912F9146
:100AF0000F900FBE0F901F901895883109F488C091
:100B0000803251F78093FC0114C0803409F49DC0F9
:100B100040F48033B9F38833F9F68093FC0185EC17
:100B2000B0C0803509F485C0883509F496C0883492
:100B300099F60E94AD01D0CF883909F48CC038F500
:100B4000883729F050F4883611F0803729F683E091
:100B500080932E021092D80157C0883809F47BC0C8
:100B6000803919F0803809F0B7CF8091D8018032F0
:100B700008F071C0E091D80181E08E0F8093D80118
:100B80008091BB00F0E0E854FE4F80833DC0803B85
:100B900039F0E0F4803A09F479C0883A09F09CCF42
:100BA00084E080932E021092B7011092B601E0917A
:100BB0002A02F0912B0209958091B60181110FC094
:100BC00081E08093B6011092960109C0803C09F43F
:100BD000A6CF883C09F4A3CF883B09F07DCFE091F4
:100BE000B70181E08E0F8093B701F0E0EA56FE4F27
:100BF00080818093BB009091B7018091B60129C09C
:100C00008091D9018093BB0085EC8093BC0064CFB8
:100C10009091FB018091FA01981758F5E091FB0142
:100C200081E08E0F8093FB01F0E0E652FE4F808161
:100C3000E9CFE091FB0181E08E0F8093FB01809171
:100C4000BB00F0E0E652FE4F80839091FB01809163
:100C5000FA019817C8F285E8D8CFE091FB0181E04E
:100C60008E0F8093FB018091BB00F0E0E652FE4FB7
:100C7000808380912D0281115CCF81E080932C02D2
:100C800084EA8093BC0010922E0226CF85EC8093DC
:100C9000BC0010922E028091D801803230F4E09195
:100CA000D801F0E0E854FE4F10826091D80170E066
:100CB000E0912802F091290288EB91E009951092C9
:100CC000D8010ACF1092FC0134CFE9E4F2E013829C
:100CD000128288EE93E0A0E0B0E084839583A6833F
:100CE000B78386E191E091838083E5E5F2E01382AA
:100CF000128288E291E09183808387E2848380E19D
:100D0000818782E0828713860895789484B5826013
:100D100084BD84B5816084BD85B5826085BD85B59F
:100D2000816085BD80916E00816080936E0010921D
:100D30008100809181008260809381008091810098
:100D40008160809381008091800081608093800029
:100D50008091B10084608093B1008091B000816087
:100D60008093B00080917A00846080937A008091B3
:100D70007A00826080937A0080917A008E7F8093DF
:100D80007A0080917A00806880937A001092C10086
:100D900061E089E00E94120160E082E00E9412019D
:100DA00060E081E10E94120160E080E10E94120196
:100DB00010923202109231021092300210922F02E1
:100DC00010922E0281E080932D0210922C0261E09D
:100DD00082E10E94E40061E083E10E94E4008091EE
:100DE000B9008E7F8093B9008091B9008D7F809388
:100DF000B90080E28093B80085E48093BC008CE861
:100E000090E090932B0280932A028DE890E09093DB
:100E100029028093280210925A0280915F02823048
:100E200018F098E090935A0280935D0262E370E0BC
:100E300080E090E00E947A016091600285E592E096
:100E40000E94640268EE73E080E090E00E947A0104
:100E500060E385E592E00E94C803C4E2D3E2CE01DC
:100E60000197F1F760E385E592E00E94C8032197BE
:100E7000F1F760E385E592E00E94C80388E291E023
:100E80000197F1F760E285E592E00E94C803609166
:100E90005A02606240E085E592E00E94E10384E04E
:100EA00080935B0240E06CE085E592E00E94E10304
:100EB00040E061E085E592E00E94E103CCE9DFE0FB
:100EC000CE010197F1F782E080935C0240E066E09A
:100ED00085E592E00E94E10340E062E085E592E072
:100EE0000E94E1032197F1F788E08093600260E0BF
:100EF00085E592E00E94640281E10E94430104E6DC
:100F000010E0B8010E941709EB0170930301609390
:100F1000020180E10E944301B8010E941709709309
:100F20000101609300016630710534F085E090E0C6
:100F30009093010180930001809100019091010143
:100F40001816190634F081E090E090930101809327
:100F500000016091000170910101CE010E945204D4
:100F600061E089E00E94E40090EB292E90E0392EA8
:100F70002CE9422E20E0522E38E8632E30E0732E0A
:100F80000FE511E043E3E42E42E0F42E54E6C52ED3
:100F9000D12C60E0862E60E0962EF1018491F20162
:100FA000C491F301D491DD23B9F081110E94BB00FB
:100FB000ED2FF0E0EE0FFF1FE458FF4FA591B49125
:100FC0008C91C82349F08091470290914802019684
:100FD0009093480280934702809147029091480283
:100FE000049724F010924802109247028091450223
:100FF00090914602CC9769F480914302909144020B
:1010000010924602109245020196909344028093FA
:101010004302A0904302B0904402C0910201D091DB
:101020000301AC16BD0621F460E089E00E94E400F3
:101030008091000190910101C80FD91FAC16BD0627
:1010400061F41092460210924502109244021092EE
:10105000430261E089E00E94E400809147029091A0
:10106000480218161906BCF50E942F0480E00E9461
:10107000F80380E491E00E94CB0281E00E94F80333
:1010800081E10E944301B6010E941709EB017093B0
:1010900003016093020180E10E944301B6010E94B6
:1010A00017097093010160930001CE010E94520460
:1010B000109246021092450210924402109243028E
:1010C00061E089E00E94E4008114910409F465CF95
:1010D0000E94000062CF80E00E94F80381E591E069
:1010E0000E94CB0281E00E94F803809146028F9318
:1010F000809145028F93809144028F9380914302A7
:101100008F931F930F93FF92EF920E94370BF8E09B
:10111000F093600260E085E592E00E94640283E360
:1011200092E00E94CB0268EE73E080E090E00E94C3
:101130007A01809145029091460201969093460271
:10114000809345028DB79EB708960FB6F8949EBF60
:101150000FBE8DBFB9CFBB274A3031F4992322F49B
:10116000BDE2909581959F4F0C94B708BB27FB017A
:101170005527AA27880F991FAA1FA41710F0A41B90
:1011800083955051B9F7A05DAA3308F0A95DA193EA
:10119000009779F7B111B1931192CB010C94D0085B
:1011A000DC01FC01672F71917723E1F7329704C0CE
:1011B0007C916D9370836291AE17BF07C8F3089559
:1011C0002F923F924F925F926F927F928F929F9257
:1011D000AF92BF92CF92DF92EF92FF920F931F9345
:1011E000CF93DF93CDB7DEB7CA1BDB0B0FB6F894F6
:1011F000DEBF0FBECDBF09942A88398848885F8436
:101200006E847D848C849B84AA84B984C884DF80A6
:10121000EE80FD800C811B81AA81B981CE0FD11D8A
:101220000FB6F894DEBF0FBECDBFED01089597FB5A
:10123000072E16F4009407D077FD09D00E942B09E1
:1012400007FC05D03EF4909581959F4F08957095C9
:1012500061957F4F0895AA1BBB1B51E107C0AA1FD0
:10126000BB1FA617B70710F0A61BB70B881F991F47
:101270005A95A9F780959095BC01CD010895EE0F80
:10128000FF1F0590F491E02D09940F931F93CF93C6
:10129000DF938230910510F482E090E0E0916302E8
:1012A000F091640230E020E0B0E0A0E0309799F4E3
:1012B0002115310509F44AC0281B390B24303105AA
:1012C000D8F58A819B816115710589F1FB019383B2
:1012D0008283FE0111C04081518102811381481730
:1012E0005907E0F04817590799F4109761F01296E2
:1012F0000C93129713961C933296CF01DF91CF91E6
:101300001F910F9108950093630210936402F4CF2C
:101310002115310551F04217530738F0A901DB01BF
:101320009A01BD01DF01F801C1CFEF01F9CF909320
:10133000640280936302CDCFFE01E20FF31F81931D
:1013400091932250310939832883D7CF20916102AC
:1013500030916202232B41F4209106013091070164
:1013600030936202209361022091040130910501C3
:101370002115310541F42DB73EB740910801509138
:101380000901241B350BE0916102F0916202E21722
:10139000F307A0F42E1B3F0B2817390778F0AC0198
:1013A0004E5F5F4F2417350748F04E0F5F1F509375
:1013B000620240936102819391939FCFF0E0E0E05D
:1013C0009CCFCF93DF930097E9F0FC013297138213
:1013D0001282A0916302B0916402ED0130E020E03E
:1013E0001097A1F420813181820F931F2091610217
:1013F000309162022817390709F061C0F093620248
:10140000E0936102DF91CF910895EA01CE17DF07E3
:10141000E8F54A815B819E0141155105B1F7E9016B
:10142000FB83EA8349915991C40FD51FEC17FD073F
:1014300061F4808191810296840F951FE90199835F
:101440008883828193819B838A83F0E0E0E0129617
:101450008D919C9113970097B9F52D913C9111971F
:10146000CD010296820F931F20916102309162029A
:101470002817390739F6309751F510926402109207
:101480006302B0936202A0936102BCCFD383C28394
:1014900040815181840F951FC817D90761F44E5FB1
:1014A0005F4F88819981480F591F518340838A81FA
:1014B0009B81938382832115310509F0B0CFF0938E
:1014C0006402E09363029ECFFD01DC01C0CF138272
:1014D0001282D7CFB0E0A0E0E0E7FAE00C94E20897
:1014E0008C01009751F4CB010E9445098C01C80181
:1014F000CDB7DEB7E0E10C94FE08FC01E60FF71F64
:101500009C0122503109E217F30708F49DC0D9016C
:10151000CD91DC911197C617D70798F0C530D1054A
:1015200030F3CE0104978617970708F3C61BD70B35
:101530002297C193D1936D937C93CF010E94E109CF
:10154000D6CF5B01AC1ABD0A4C018C0E9D1EA0913A
:101550006302B0916402512C412CF12CE12C1097C4
:1015600031F580916102909162028815990509F028
:101570005CC04616570608F058C08091040190914F
:101580000501009741F48DB79EB740910801509135
:101590000901841B950BE817F90708F055C0F09373
:1015A0006202E0936102F90171836083A0CF8D91A3
:1015B0009C91119712966C90129713967C901397AA
:1015C000A815B90559F56C0142E0C40ED11CCA1426
:1015D000DB0420F1AC014A195B09DA011296159778
:1015E00080F06282738251834083D9016D937C9332
:1015F000E114F10471F0D7011396FC93EE93129766
:1016000076CF22968C0F9D1FF90191838083F30181
:10161000EFCFF0936402E093630269CF4816590656
:1016200008F42C017D01D3019ACFCB010E9445091A
:101630007C01009749F0AE01B8010E94270BC80158
:101640000E94E109870153CF10E000E050CFFB0179
:10165000DC0102C001900D9241505040D8F708952E
:10166000FB01DC0101900D920020E1F70895AEE04E
:10167000B0E0EDE3FBE00C94EE080D891E8986E0F6
:101680008C831A8309838FEF9FE79E838D83AE013E
:10169000475E5F4F6F89788DCE0101960E945A0B8D
:1016A0002F813885020F131FF80110822E96E4E077
:1016B0000C940A09ABE0B0E0E0E6FBE00C94E00833
:1016C0007C013B018A01FC0117821682838181FF24
:1016D000C8C1CE0101965C01F7019381F30193FD2E
:1016E000859193FF81913F01882309F453C185328D
:1016F00039F493FD859193FF81913F01853229F45F
:10170000B70190E00E944A0DE7CF912C212C312C9B
:10171000FFE1F31538F08B3211F190F4803209F1CA
:10172000833229F137FC3CC020ED280F2A3050F5D8
:1017300036FE20C08AE0989E200D1124922E06C00D
:101740008D3291F0803371F7689430F8F30193FD96
:10175000859193FF81913F018111DACF21C0689477
:1017600031F8689432F8F2CF689433F8EFCF689488
:1017700034F8ECCFEAE02E9E200D1124222E68943E
:1017800035F8E4CF8E3229F436FC04C1689436F87B
:10179000DDCF8C3619F4689437F8D8CF8836B1F29B
:1017A000982F9F7D95549330E0F08336A1F18337D5
:1017B000C1F1833509F063C02801F2E04F0E511CDE
:1017C000F801C080D180692D70E036FC02C06FEF57
:1017D0007FEFC6010E94340D4C01689437F88201F6
:1017E0000AC00C5F1F4FFFE3F98388248394912C78
:1017F0006501E89437F833FE2DC0522C8114910412
:1018000071F5552009F468CFB70180E290E00E949D
:101810004A0D5A94F6CFF801808189830E5F1F4FDD
:10182000E4CF2801F2E04F0E511CF801C080D180B6
:10183000692D70E036FC02C06FEF7FEFC6010E9499
:101840003F0D4C018201D5CFB70180E290E00E94AC
:101850004A0D2A942814190409F0B0F7CECFF601E6
:1018600037FC859137FE81916F01B70190E00E94AE
:101870004A0D51105A94F1E08F1A9108BFCF843667
:1018800019F0893609F077C0F80137FE6BC0608126
:101890007181828193810C5F1F4FF32DFF763F2E64
:1018A00097FF09C090958095709561957F4F8F4FF8
:1018B0009F4F689437F82AE030E0A5010E947A0D26
:1018C000C82ECA188C2C432C36FE0CC0E89440F865
:1018D000C91440F434FE05C032FC03C0F32DFE7E73
:1018E0004F2E892C44FE95C0FE01EC0DF11D808128
:1018F000803309F087C0242D297E422E842D8870E4
:10190000582E43FC95C040FE8FC09C2C821418F4C6
:101910002C0C922C981844FE91C0B70180E390E003
:101920000E944A0D42FE09C088E790E041FE02C0D5
:1019300088E590E0B7010E944A0DC91408F48AC0F6
:10194000CA94D12C9FEFC91AD90ACA0CDB1CF60124
:1019500082916F01B70190E00E944A0DAC14BD0462
:10196000B1F74FCF60817181072E000C880B990B66
:101970000E5F1F4F92CFD32CE894D4F82AE030E0CA
:10198000853739F1232D297FD22E8F3601F148F486
:101990008835A9F0F701868197812B96E2E10C94B6
:1019A000FC08803749F08837A9F7D4FE02C0689454
:1019B000D2F820E130E00DC06894D4F8F6CF34FEC0
:1019C00003C0822F8660D82E20E132E002C028E0DA
:1019D00030E0F801D7FE0FC0608171818281938170
:1019E0000C5F1F4FA5010E947A0DC82ECA183D2C0E
:1019F000E89437F867CF6081718190E080E00E5FF6
:101A00001F4FF0CF42FC02C0839478CF839483941D
:101A100075CF842D867809F471CFF6CFB70180E2B7
:101A200090E00E944A0D83948214C0F3512C73CF2E
:101A3000522C5818821408F46ECFF8CF842D867873
:101A400009F47BCF8BE241FE80E247FC8DE2B701D7
:101A500090E071CFB70180E390E00E944A0D9A9424
:101A60006CCF8FEF9FEF99CFFC01059061507040D4
:101A70000110D8F7809590958E0F9F1F0895FC0157
:101A80006150704001900110D8F7809590958E0FAD
:101A90009F1F08950F931F93CF93DF93182F092F44
:101AA000EB018B8181FD09C01FEF0FEF812F902F7C
:101AB000DF91CF911F910F91089582FF14C02E8165
:101AC0003F818C819D81281739073CF4E881F98199
:101AD000CF0101969983888310838E819F8101961F
:101AE0009F838E83E3CFE885F985812F0995892B24
:101AF000A1F3DACFFA01AA27283051F1203181F180
:101B0000E8946F936E7F6E5F7F4F8F4F9F4FAF4F05
:101B1000B1E03ED0B4E03CD0670F781F891F9A1F18
:101B2000A11D680F791F8A1F911DA11D6A0F711DCC
:101B3000811D911DA11D20D009F468943F912AE0D8
:101B4000269F11243019305D3193DEF6CF010895C0
:101B5000462F4770405D4193B3E00FD0C9F7F6CFF1
:101B6000462F4F70405D4A3318F0495D31FD4052B9
:101B7000419302D0A9F7EACFB4E0A695979587954F
:101B800077956795BA95C9F700976105710508952E
:101B90009B01AC010A2E06945795479537952795DA
:101BA000BA95C9F7620F731F841F951FA01D089572
:041BB000F894FFCFD7
:101BB40001000200000065028000000040001400E3
:101BC40054000000000035020802C802DE010102D0
:101BD400EE01DF010000000029048E00C802AC0100
:101BE4002054203D200020204D203D2000202000B6
:101BF400202073657420796F75722074696D652077
:101C0400004368726F6E6F6D65747265203A0025CB
:101C1400302E3264206D696E732025302E3264209C
:061C24007365637300000C
:00000001FF
