:100000000C945D000C9485000C9485000C94850084
:100010000C9485000C9485000C9485000C9485004C
:100020000C9485000C9485000C9485000C9485003C
:100030000C9485000C9485000C9485000C9485002C
:100040000C949A030C9485000C9485000C94850004
:100050000C9485000C9485000C9485000C9485000C
:100060000C94E4030C9485000000000800020100D9
:100070000003040700000000000000000000000072
:10008000250028002B0000000000240027002A0083
:10009000040404040404040402020202020203032E
:1000A0000303030301020408102040800102040836
:1000B0001020010204081020030511241FBECFEFF9
:1000C000D8E0DEBFCDBF22E0A2E4B1E001C01D92C6
:1000D000A731B207E1F711E0A0E0B1E0ECE5FEE006
:1000E00002C005900D92A234B107D9F710E0CDE51A
:1000F000D0E004C02197FE010E942607CC35D1072D
:10010000C9F70E9423050C942C070C940000982F2B
:100110002091FE0181E0213208F043C08091DA0194
:100120008111FCCF8091FD0132E03093DA01909390
:10013000D9019FEF9093D8011092D7012093D60157
:10014000ADEDB1E0E6EBF1E090E0291331C01092A3
:10015000B5019091B501880F892B8093B5018091ED
:10016000B401813049F51092B4018091B5018093BA
:10017000BB008091BC0083FDF8CF85EC8093BC0070
:100180008091DA018230E1F38091D8018F3FB1F0A4
:100190008091D8018032A1F08091D801803391F014
:1001A00084E01092DC011092FE011092DB010895B0
:1001B0003D9131939F5FC9CF85EEE0CF80E0F1CFD5
:1001C00082E0EFCF83E0EDCF0895089590E0FC0149
:1001D000EC55FF4F249180579F4FFC018491882359
:1001E00099F090E0880F991FFC01EA57FF4FA59105
:1001F000B491FC01E458FF4F859194918FB7F89426
:10020000EC91E22BEC938FBF0895AF92BF92CF9207
:10021000DF92EF92FF920F931F93CF93DF936C01C6
:100220007B018B01040F151FEB015E01AE18BF08A7
:10023000C017D10759F06991D601ED91FC91019059
:10024000F081E02DC6010995892B79F7C501DF9171
:10025000CF911F910F91FF90EF90DF90CF90BF90C3
:10026000AF90089590E0FC01E859FF4F2491FC0104
:10027000EC55FF4F3491FC01E057FF4FE491EE2322
:10028000C9F0222339F0233001F1A8F4213019F10B
:10029000223029F1F0E0EE0FFF1FE458FF4FA59147
:1002A000B4918FB7F894EC91611126C030953E233C
:1002B0003C938FBF08952730A9F02830C9F024302F
:1002C00049F7809180008F7D03C0809180008F77F7
:1002D00080938000DFCF84B58F7784BDDBCF84B57A
:1002E0008F7DFBCF8091B0008F778093B000D2CF0D
:1002F0008091B0008F7DF9CF3E2BDACF1092B30101
:100300001092B2011092DC011092FE011092DA01FB
:1003100081E08093D9011092B40161E082E10E94F2
:10032000320161E083E10E943201E9EBF0E080817B
:100330008E7F808380818D7F808380E28093B80070
:1003400085E48093BC0084EE90E09093B1018093AB
:10035000B00185EE90E09093AF018093AE010895D7
:100360003FB7F89480918A0190918B01A0918C0104
:10037000B0918D0126B5A89B05C02F3F19F00196BD
:10038000A11DB11D3FBFBA2FA92F982F8827BC01EF
:10039000CD01620F711D811D911D43E0660F771F16
:1003A000881F991F4A95D1F708958F929F92AF9217
:1003B000BF92CF92DF92EF92FF924B015C010E94BD
:1003C000B0016B017C010E94B0016C197D098E099E
:1003D0009F09683E734081059105A8F321E0821AC8
:1003E0009108A108B10888EEC80E83E0D81EE11C70
:1003F000F11C81149104A104B10429F7FF90EF903E
:10040000DF90CF90BF90AF909F908F900895089508
:1004100085ED8093BC008091BC0084FDFCCF1092E0
:10042000DA01089520916201260F3327331F21320C
:100430003105ECF42091DA01FC0190E080E02430F9
:1004400069F082E00895A09162012191AC014E5BB8
:100450005E4FA40FB52FB11D2C930196861798F30C
:1004600080916201680F6093620180E0089581E0ED
:1004700008950895E091B3018091B201E81730F436
:10048000F0E0E257FE4F808190E008958FEF9FEFFC
:1004900008959091B3018091B2012FEF3FEF98172B
:1004A00048F4E92FF0E0E257FE4F208130E09F5FF3
:1004B0009093B301C90108958091B2019091B30165
:1004C000891B990B0895CF92DF92EF92FF920F93C1
:1004D0001F93CF93DF937C01CB018A012091DB0135
:1004E000222389F0EB016B01C40ED51ECC15DD056E
:1004F00069F06991D701ED91FC910190F081E02DB7
:10050000C7010995F3CF642F0E941202C801DF9141
:10051000CF911F910F91FF90EF90DF90CF900895B2
:10052000CF93DF931F92CDB7DEB769832091DB01B4
:100530002223F9F02091FE01203258F021E030E032
:10054000FC013383228390E080E00F90DF91CF9114
:1005500008958091DC01E82FF0E0E352FE4F99818D
:1005600090838F5F8093DC018093FE0181E090E0B7
:10057000ECCF61E0CE0101960E941202F7CFFC01A0
:10058000248131E03093DB012093FD011092DC01E6
:100590001092FE018385682B8FEF91E00E949002FC
:1005A00081E00C94870090E080E008958F929F9204
:1005B000AF92BF920F931F93CF93DF93CDB7DEB768
:1005C000A1970FB6F894DEBF0FBECDBF19A242307F
:1005D00008F44AE08E010F5D1F4F842E912CB12C40
:1005E000A12CA50194010E940407E62FB901CA01BC
:1005F000EA3044F5E05DD801EE938D01232B242BE6
:10060000252B79F790E080E0109769F0FD010190CB
:100610000020E9F73197AF014A1B5B0BBD018BE06E
:1006200092E00E940501A1960FB6F894DEBF0FBEBE
:10063000CDBFDF91CF911F910F91BF90AF909F9051
:100640008F900895E95CD7CFFC0101900020E9F775
:100650003197AF01481B590BBC018BE092E00C9421
:1006600005010F931F93CF938C01C62F0E94BF02E9
:100670006C2F6460C8010E94BF026C2F6B7FC801A1
:100680000E94BF0280E690E00197F1F7CF911F91A1
:100690000F9108950F931F93CF93DF938C01D62F63
:1006A000C42F607F642B0E94310380E1D89FB0018A
:1006B00011246C2BC801DF91CF911F910F910C94E5
:1006C0003103CF93DF93CDB7DEB728970FB6F894F9
:1006D000DEBF0FBECDBF98E0E0E0F1E0DE01119695
:1006E00001900D929A95E1F790911302961708F4F4
:1006F0006FEF262F30E0220F331F41E050E04C0F08
:100700005D1F240F351FF9016081680F606840E0AC
:100710008BE092E028960FB6F894DEBF0FBECDBFF7
:10072000DF91CF910C944A0341E00E944A0381E09B
:1007300090E008951F920F920FB60F9211242F93FD
:100740003F938F939F93AF93BF9380918601909136
:100750008701A0918801B09189013091850126E03F
:10076000230F2D3758F50296A11DB11D2093850149
:100770008093860190938701A0938801B0938901AB
:1007800080918A0190918B01A0918C01B0918D0193
:100790000196A11DB11D80938A0190938B01A093B6
:1007A0008C01B0938D01BF91AF919F918F913F913B
:1007B0002F910F900FBE0F901F90189529E8230FCF
:1007C0000396A11DB11DD2CF1F920F920FB60F92AB
:1007D00011242F933F934F935F936F937F938F9346
:1007E0009F93AF93BF93EF93FF938091B900887F5E
:1007F000803609F44AC0F0F5883209F4A7C018F52C
:10080000803109F49BC0B8F4882309F4F9C088301A
:1008100009F494C0FF91EF91BF91AF919F918F9197
:100820007F916F915F914F913F912F910F900FBEEC
:100830000F901F901895883109F488C0803251F7C5
:100840008093D80114C0803409F49DC040F48033F3
:10085000B9F38833F9F68093D80185ECB0C08035C0
:1008600009F485C0883509F496C0883499F60E9449
:100870000802D0CF883909F48CC038F5883729F0C0
:1008800050F4883611F0803729F683E08093DA013E
:100890001092840157C0883809F47BC0803919F060
:1008A000803809F0B7CF80918401803208F071C0A0
:1008B000E091840181E08E0F809384018091BB00E0
:1008C000F0E0EC59FE4F80833DC0803B39F0E0F40E
:1008D000803A09F479C0883A09F09CCF84E080938B
:1008E000DA011092630110926201E091B001F0917F
:1008F000B10109958091620181110FC081E080935F
:1009000062011092420109C0803C09F4A6CF883CE4
:1009100009F4A3CF883B09F07DCFE091630181E02A
:100920008E0F80936301F0E0EE5BFE4F8081809339
:10093000BB00909163018091620129C08091B50153
:100940008093BB0085EC8093BC0064CF9091D7016D
:100950008091D601981758F5E091D70181E08E0F6C
:100960008093D701F0E0EA54FE4F8081E9CFE09117
:10097000D70181E08E0F8093D7018091BB00F0E01A
:10098000EA54FE4F80839091D7018091D601981749
:10099000C8F285E8D8CFE091D70181E08E0F80932F
:1009A000D7018091BB00F0E0EA54FE4F8083809134
:1009B000D90181115CCF81E08093B40184EA8093F6
:1009C000BC001092DA0126CF85EC8093BC00109217
:1009D000DA0180918401803230F4E0918401F0E00A
:1009E000EC59FE4F10826091840170E0E091AE01FD
:1009F000F091AF0184E691E00995109284010ACF4D
:100A00001092D80134CFEFEFF1E01382128288EE1A
:100A100093E0A0E0B0E084839583A683B7838CE065
:100A200091E091838083EBE0F2E0138212828EE109
:100A300091E09183808387E2848380E1818782E0F3
:100A4000828713860895789484B5826084BD84B5C6
:100A5000816084BD85B5826085BD85B5816085BDB9
:100A600080916E00816080936E0010928100809171
:100A700081008260809381008091810081608093F9
:100A80008100809180008160809380008091B1001E
:100A900084608093B1008091B00081608093B00049
:100AA00080917A00846080937A0080917A008260DD
:100AB00080937A0080917A008E7F80937A00809173
:100AC0007A00806880937A001092C10089E00E94C9
:100AD000E6008AE00E94E6008BE00E94E60061E00A
:100AE00089E00E94320161E08AE00E94320161E007
:100AF0008BE00E9432010E947E01109210028091D0
:100B00001502823018F098E090931002809313023F
:100B100062E370E080E090E00E94D50160911602EF
:100B20008BE092E00E94BF0268EE73E080E090E00C
:100B30000E94D50160E38BE092E00E943103C4E2A1
:100B4000D3E2CE010197F1F760E38BE092E00E94DF
:100B500031032197F1F760E38BE092E00E943103CB
:100B600088E291E00197F1F760E28BE092E00E9469
:100B7000310360911002606240E08BE092E00E94DD
:100B80004A0384E08093110240E06CE08BE092E045
:100B90000E944A0340E061E08BE092E00E944A0339
:100BA000CCE9DFE0CE010197F1F782E080931202F9
:100BB00040E066E08BE092E00E944A0340E062E0A1
:100BC0008BE092E00E944A032197F1F788E080933E
:100BD000160260E08BE092E00E94BF020E947E015C
:100BE0000E947E0188E68093FD011092FE0181E063
:100BF0000E948700FF24F39468E6E62EDD24DA9451
:100C000076E0C72EE5EEBE2EF5ECAF2E00E010E04C
:100C1000F092DB01E092FD011092DC011092FE01E6
:100C200060E08FEF91E00E94900281E00E948700D7
:100C30008091DA018111FCCFF092DA01F092D901B2
:100C4000D092D8011092D701C092D601F092B5018E
:100C50008091B501806D8093B5018091B4018130A0
:100C600009F0B6C01092B4018091B5018093BB0029
:100C70008091BC0083FDF8CFA092BC008091DA0186
:100C80008130E1F38091D70197E0873010F49091A3
:100C9000D701A6EBB1E0EEE8F1E080E089139BC05C
:100CA0001092B3018093B2018FEF91E00E9449024C
:100CB0008F77282F30E094E0359527959A95E1F7C6
:100CC000922F990F990FD22FD91BDD0FD80F8FEFCD
:100CD00091E00E9449029C0144E0359527954A9590
:100CE000E1F72F703327922F990F990FC22FC91B4D
:100CF000CC0FC80F8FEF91E00E9449029C0154E095
:100D0000359527955A95E1F72F703327922F990F34
:100D1000990F291B622F660F962E980E8FEF91E088
:100D20000E9449028FEF91E00E9449028FEF91E00B
:100D30000E9449028FEF91E00E94490260E080E04A
:100D40000E94610386E291E00E94240360E086E055
:100D50000E946103692D70E090E080E04AE00E940B
:100D6000D6028DE291E00E9424036C2F70E090E0A7
:100D700080E04AE00E94D6028DE291E00E942403C6
:100D80006D2F70E090E080E04AE00E94D6028BE296
:100D900091E00E942403C33211F560E089E00E94D3
:100DA000320160E08AE00E94320160E08BE00E9444
:100DB000320161E080E00E9461038FE291E00E94D5
:100DC00024030115110509F423CF0E94000020CF50
:100DD000B092BC0053CF2D9121938F5F5FCFC4326F
:100DE00081F761E089E00E94320161E08AE00E94BF
:100DF000320161E08BE00E94320161E080E00E94FC
:100E0000610388E391E0DBCFA1E21A2EAA1BBB1B92
:100E1000FD010DC0AA1FBB1FEE1FFF1FA217B307C6
:100E2000E407F50720F0A21BB30BE40BF50B661FDC
:100E3000771F881F991F1A9469F7609570958095A0
:100E400090959B01AC01BD01CF010895EE0FFF1FEE
:0C0E50000590F491E02D0994F894FFCF78
:100E5C0000004000140054000000000090026302E7
:100E6C00D30239025C0249023A02000000009403EA
:100E7C000501D302070254696D653A20003A00520D
:100E8C00656C6179204F4E0052656C6179204F463C
:020E9C0046000E
:00000001FF
